:100000000C9416060C943E060C943E060C943E0688
:100010000C943E060C943E060C943E060C943E0650
:100020000C943E060C943E060C9439100C94A810C7
:100030000C943E060C943E060C943E060C943E0630
:100040000C943E060C943E060C943E060C943E0620
:100050000C943E060C943E060C943E060C94DA1268
:100060000C943E060C943E060C943E060C943E0600
:100070000C943E060C943E060C943E060C943E06F0
:100080000C943E060C943E060C943E060C943E06E0
:100090000C943E060C943E060C943E060C943E06D0
:1000A0000C943E060C943E060C943E0600000000A4
:1000B000C0F0F8F8F8F8F8F0C0000000000000F810
:1000C000FFFFFFFFFFFFFFFF3F000000000000C039
:1000D000F0F8F8F8F8F8F0C0000000000000003F69
:1000E000FFFFFFFFFFFFFFFFF800000000808080A0
:1000F0008080800000000000000000001F3F7FFFA4
:10010000FFFFFFFFFEFEFCF8F0E000000000000033
:100110000000000000808080808080000000E0F00F
:10012000F8FCFEFEFFFFFFFFFF7F3F1F10100000E7
:100130000000C07018C868C81870C0000000000037
:1001400000F80FE01F0100F10FE03F000000000089
:1001500000C07018C868C81870C000000000000017
:10016000003FE00FF100011FE00FF80000000080E9
:1001700080808080800000000000000000003F318F
:1001800064CA9224498B12264C9830E0000000008B
:10019000000000000000008080808080800000005F
:1001A000E030984C26128B492492CA64311F1010FB
:1001B000FFFFFFFFFFFFFFFF7F7FBFDFEF6FAFF7A7
:1001C000000123373B1B2D36182010793F3F1F1BA2
:1001D000FBFD6103070F1F3F7FFFFF7FBFDF3F7FF7
:1001E0000B01000C1C000003040C0003072F674CDC
:1001F000FFFFFFFFFFFFFFFFFF7FBFBFBFDF6FF707
:10020000080009131703052E2E0F173B7B3D1F73A4
:10021000FBF7E7CB1D1B270F1F3F7FFFFF7FBF1F94
:100220007039331F07100C00101830210203070C1F
:100230005FEFEFF7771B2BADFDF1C30307478F1F70
:100240001E3F3B3D7C3E2F37377B67371200200037
:100250007FFFFFFFFFFF7FBFDFEF9F3F7F7FFFFF3E
:100260000018112343040F1F3D3E3F7E3822080132
:10027000FFFF7F9FEFB71B3D7D5BF3E7C78F0F1F2E
:100280000206173B3D1D2F2E34147E7B3D3D1E0C78
:100290003F1F2F777BDBF7EFDF9F3F7F7FFFFFFF66
:1002A00000002214040001070B1E3B3A3820010312
:1002B00000000000003E5B4F5B3E3E6B4F6B3E1C00
:1002C0003E7C3E1C183C7E3C181C577D571C1C5E17
:1002D0007F5E1C00183C1800FFE7C3E7FF001824EE
:1002E0001800FFE7DBE7FF30483A060E2629792998
:1002F00026407F050507407F05253F5A3CE73C5ACD
:100300007F3E1C1C08081C1C3E7F14227F22145FA9
:100310005F005F5F06097F017F006689956A606004
:1003200060606094A2FFA29408047E040810207EFE
:10033000201008082A1C08081C2A08081E10101083
:10034000100C1E0C1E0C30383E3830060E3E0E06C9
:10035000000000000000005F00000007000700141C
:100360007F147F14242A7F2A1223130864623649DB
:100370005620500008070300001C224100004122C3
:100380001C002A1C7F1C2A08083E080800807030C8
:100390000008080808080000606000201008040237
:1003A0003E5149453E00427F40007249494946213D
:1003B00041494D331814127F1027454545393C4AB1
:1003C00049493141211109073649494936464949C8
:1003D000291E000014000000403400000008142210
:1003E000411414141414004122140802015909067E
:1003F0003E415D594E7C1211127C7F494949363E7F
:10040000414141227F4141413E7F494949417F0964
:100410000909013E414151737F0808087F00417F6F
:1004200041002040413F017F081422417F4040406D
:10043000407F021C027F7F0408107F3E4141413E05
:100440007F090909063E4151215E7F091929462687
:100450004949493203017F01033F4040403F1F208B
:1004600040201F3F4038403F631408146303047862
:1004700004036159494D43007F4141410204081082
:1004800020004141417F04020102044040404040BD
:10049000000307080020545478407F28444438382B
:1004A00044444428384444287F385454541800089D
:1004B0007E090218A4A49C787F0804047800447D77
:1004C00040002040403D007F1028440000417F4014
:1004D000007C047804787C08040478384444443868
:1004E000FC1824241818242418FC7C080404084848
:1004F0005454542404043F44243C4040207C1C2099
:1005000040201C3C4030403C44281028444C9090F3
:10051000907C4464544C440008364100000077004D
:1005200000004136080002010204023C2623263C5A
:100530001EA1A161123A4040207A385454555921E5
:1005400055557941215454784121555478402054CF
:100550005579400C1E52721239555555593954541B
:10056000545939555454580000457C410002457D8A
:10057000420001457C40F0292429F0F0282528F08C
:100580007C545545002054547C547C0A097F4932E0
:10059000494949323248484832324A4848303A415B
:1005A00041217A3A42402078009DA0A07D39444400
:1005B00044393D4040403D3C24FF2424487E49438B
:1005C000662B2FFC2F2BFF0929F620C0887E0903FC
:1005D00020545479410000447D413048484A323823
:1005E0004040227A007A0A0A727D0D19317D26294F
:1005F000292F28262929292630484D402038080847
:10060000080808080808382F10C8ACBA2F1028347A
:10061000FA00007B000008142A142222142A14086D
:100620009500220095AA005500AAAA55AA55AA002D
:100630000000FF00101010FF00141414FF00101031
:10064000FF00FF1010F010F0141414FC001414F745
:1006500000FF0000FF00FF1414F404FC1414171032
:100660001F10101F101F1414141F00101010F00082
:100670000000001F101010101F10101010F01000BC
:100680000000FF101010101010101010FF100000CC
:1006900000FF140000FF00FF00001F10170000FC07
:1006A00004F414141710171414F404F40000FF00D9
:1006B000F714141414141414F700F7141414171462
:1006C00010101F101F141414F4141010F010F00068
:1006D000001F101F0000001F14000000FC14000089
:1006E000F010F01010FF10FF141414FF141010106D
:1006F0001F00000000F010FFFFFFFFFFF0F0F0F020
:10070000F0FFFFFF0000000000FFFF0F0F0F0F0FB3
:1007100038444438447C2A2A3E147E0202060602EB
:100720007E027E0263554941633844443C04407E66
:10073000201E2006027E020299A5E7A5991C2A49DF
:100740002A1C4C7201724C304A4D4D30304878486A
:1007500030BC625A463D3E494949007E0101017E56
:100760002A2A2A2A2A44445F444440514A444040A9
:10077000444A51400000FF0103E080FF00000808E8
:100780006B6B083612362436060F090F0600001868
:10079000180000001010003040FF0101001F01018F
:1007A0001E00191D1712003C3C3C3C0000000000DC
:1007B000F0F89C8E8783878E9CF8F00000FEFF0384
:1007C00003030303070EFCF80000FEFF030303030B
:1007D00003070EFCF80000FFFF000000000000000F
:1007E000FFFF0000FEFF8383838383C7EE7C380016
:1007F00000F8FC0E07030303070EFCF800003F7F20
:10080000E0C08080C0E07F3FFFFF010101010101E6
:1008100001FFFF0000FFFF0C0C0C0C1C3E77E3C136
:1008200000007FFFC0C0C0C0C0E0703F1F00001FBD
:100830003F70E0C0C0C0E0703F1F00007FFFC1C13B
:10084000C1C1C1E3773E1C00001F3F70E0C0C0C0C3
:10085000E0703F1F000000000001FFFF01000000EA
:10086000D5F08D14A1C881CFD9F1AF20007F3FA171
:10087000C7EC72B9DC6D77A5B75B259D934A87A657
:10088000EC524925955452D9EDD05876A9A48294BA
:100890009454D06576B95C6EA573CE4925955452B3
:1008A000B99D72CA6DC3D1CA6DB3DBEC369DDDA6AE
:1008B00073B5534CFBB034674C4BF868BB73ABACAF
:1008C000EB74CE2942E7EC44B9634BC9ED3A3EB92B
:1008D0006EE59C73F52A3E4A17D7DB6D5245D6E884
:1008E000CF2E97CBE572D5AA9493CBE536D6ECA55F
:1008F000645CE97476E99C534AB9A5724EC96D3AB5
:10090000F4A7E354BB2B9BDD2AE99C5D8744E59C5F
:1009100073EA569FFAD4E7B28E732B955433A6B37D
:10092000DBA96F7553DFEA66DDAED3D9ED761D9A8C
:10093000B2DBED76BB8E3CBB54CE39A7E4AA4F6D3B
:10094000974A2AA9A472CE2E552955BB4A56329DE4
:1009500073EA52AA56B7BA5DAD3ABB92A13E9D5515
:10096000B27297931873DAE9ED76BBDD6EB74A3A47
:1009700067E7DE2A95FAD4A7FEFF5F9592CAB1BA5F
:10098000ED4E2EA59256D9ED8C52D97F46A9EC3F5B
:10099000A5DC3EAFDBAE284FADD7AD2ED7A93BB619
:1009A000466356C97576BBDDA6D3E9743A9D8E3B86
:1009B0009D55729D4EA7D39DEB55AF7AD5EA72DB5C
:1009C000319E3DF5FFAA57BD5DAFB75B259DC2BE09
:1009D00092CA39E7945472BB4DA7D3F05A3A9D0E90
:1009E00012CA6ED7DBED3A9D4E6DB7EBED56D9EDE1
:1009F0007ABB5DA7A34BC971B54C8EA9EC522955A2
:100A00002B259573CE29A9E4769B4EA7E1A9747A8C
:100A1000BB555249E7F8E0E5743ABDDDAEB75B651A
:100A2000B75B65B7EAD4A7BE643A7C4D99DF6ED751
:100A300069659574CEAED3EBF476ABA492CEF1C1DA
:100A40006F7CDCCE55323AE72A7971395749C7E5D0
:100A50005CDA713999ADB995CF2932E72AE9B89CAA
:100A60004B3BF8319D4E6FB74A2ABB5552592595DD
:100A7000DDAA5B9DFA94EA552BBBEA55AB53FF33D5
:100A8000AA4F29BBDD2ABB5552D9ED3A9D4EA7D3BB
:100A9000E9F0CAC7EC5C272773EE721DB7F239453F
:100AA000E6DCE53A2EE7D20EE31F1F1F0000000030
:100AB000000808E0EEE0FFFFFFFFFFEDE0EFFFFFC3
:100AC000FFFFFFE2EAE8FFFFFFFFFFEAEAE0FFFFC8
:100AD000FFFFFFF8FBE0FFFFFFFFFFE8EAE2FFFF99
:100AE000FFFFFFE0EAE2FFFFFFFFFFEEF2FCFFFF88
:100AF000FFFFFFE0EAE0FFFFFFFFFFE8EAE0FFFFA4
:100B0000FFFFFFEFFFFFFFFFFFFFFFFBFBFBFFFF11
:100B1000FFFFFF1010FFFFFF0101010131312161D3
:100B200061F9FFFFFFFFFFFFF7E3E1E3C7C6C0E0A6
:100B3000E0F0FFFFFFFFFFFFFF7F1F07C101010183
:100B400001FFFFFFFFFFFFF9F8F8F8F9F9C0C0C097
:100B5000C0F8F8FFFFFFFFFFF7E3C1E171310103C8
:100B600083C7FFFFFFFFFFFFF7E3C1C3C7C6C0E0B6
:100B7000E0F1FFFFFFFFFFC7830101F13101010336
:100B800087FFFFFFFFFFFFDFCFC7C1C0C0C0C4C6E4
:100B9000C3F3FFFFFFFFFFFFFFE7E703010101FFD3
:100BA000FFFFFFFFFFFFFFFFFFFFC7C0C0C0C0C7C1
:100BB000FFFFFFFFFF080B00020202000009040014
:100BC00000010202000005240010010524010101BA
:100BD00004240206052406000107058103100040D5
:100BE00009040100020A000000070502024000009B
:100BF000070583024000000403090412010002EF0C
:100C00000201404123368000010102030141726468
:100C100075696E6F204C4C430041726475696E6F4C
:100C2000204C656F6E6172646F00571311241FBEF4
:100C3000CFEFDAE0DEBFCDBF11E0A0E0B1E0E6EF3C
:100C4000FDE302C005900D92A236B107D9F725E069
:100C5000A2E6B1E001C01D92AC3FB207E1F716E099
:100C6000C6E1D6E004C02197FE010E94EC1EC5310A
:100C7000D107C9F70E9474130C94F91E0C9400005C
:100C8000480F592F511D1416150694F580389105FB
:100C90007CF597FF02C090E080E04138510514F0E8
:100CA00040E850E0481BFB01E770FF2721E030E0FF
:100CB00001C0220FEA95EAF7209577FF02C0695F2D
:100CC0007F4FFB0133E0F595E7953A95E1F7F6950F
:100CD000FE2FEE27F795E795E80FF91FE855FE4F31
:100CE000415030F08191DF01119782238C93F8CF2E
:100CF00008952F923F924F925F926F927F928F92C0
:100D00009F92AF92BF92CF92DF92EF92FF920F939A
:100D10001F93CF93DF93CDB7DEB72E970FB6F8941E
:100D2000DEBF0FBECDBF6B015E874D875901261711
:100D300037070CF003C1E616F7060CF416C13C2D7C
:100D40002D2D6501A32EB22E382F292F8D859E853E
:100D50003D872E87CE14DF04D1F52D853E852817DB
:100D6000390734F4382F292F8D859E853D872E87AE
:100D70000817190744F04D855E854017510714F494
:100D80001E870D878C0150E4C516D10408F0FDC004
:100D90004D854F5F401BB601C8012E960FB6F894E3
:100DA000DEBF0FBECDBFDF91CF911F910F91FF909E
:100DB000EF90DF90CF90BF90AF909F908F907F90FB
:100DC0006F905F904F903F902F900C944006302F83
:100DD000212F8C01832F922F3E2D2F2D7601C32E94
:100DE000D22E2D853E85201B310B38872F83A50100
:100DF0004E195F095A8749873C01601A710A9601AA
:100E00002E193F093A832983AC012D853E85421B6B
:100E1000530B5C834B83A6014A195B095C874B87A4
:100E2000CA14DB0409F442C0C50101979E838D8377
:100E30004701512C412C312C212C2D813E8128152C
:100E40003905BCF1C10169857A850E94D81E9B01D4
:100E5000200F311FC20169817A810E94D81E600F64
:100E6000711F4F815885240E351E460C571C621782
:100E700073071CF4922F9B01692F50E4851691048F
:100E800038F46F5F462F421BB401C9010E9440062F
:100E90008FEF881A980AD1CF3D852E859E878D8742
:100EA000832F922F3C2D2D2D65016CC0DE82CD82CB
:100EB000BFCFC4018A199B092B813C81829F5001BD
:100EC000839FB00C929FB00C1124C4018E199F090E
:100ED000869D7001879DF00C969DF00C1124C8141E
:100EE000D9040CF452C0C5016B857C850E94D81EC4
:100EF0002D853E85260F371FC70169817A810E94A3
:100F0000D81E600F711F4B815C81A40EB51EE60CCC
:100F1000F71C621773071CF4922F9B01692F50E492
:100F20008516910438F46F5F462F421BB401C90146
:100F30000E9440068FEF881A980AD1CFE216F30676
:100F40000CF008CFE616F7060CF4A6CF302F212FB1
:100F50000D851E859E878D87832F922F3A2D2B2DF1
:100F60005B016701E32EF22EEACEE216F3060CF4E3
:100F700038CF302F212F0D851E853D872E873E2DA2
:100F80002F2D7501A32EB22E2CCF2E960FB6F894CE
:100F9000DEBF0FBECDBFDF91CF911F910F91FF90AC
:100FA000EF90DF90CF90BF90AF909F908F907F9009
:100FB0006F905F904F903F902F900895E8EAF1E096
:100FC000A0E0B8E000800EBC8111012C1197A0FDBB
:100FD000FDCF0192B9F70DB40895FC018091A701EE
:100FE000882311F13FB7F89482E08093E9002091C3
:100FF000F200822F90E01816190614F481E090E0B8
:10100000882339F0289844E64093A6014091F100E6
:101010004083222339F02091F200211103C02BE6F6
:101020002093E8003FBF08958FEF9FEF08952FB7FB
:10103000F89483E08093E9009091E800892F807212
:1010400095FF04C09091F20080E4891B2FBF0895A2
:1010500080919E0181110DC082E080939A0184E00D
:1010600080939B0110929D0110929C0181E08093DE
:101070009E018AE991E00895CF93DF931F92CDB747
:10108000DEB76983DC01ED91FC910280F381E02DF4
:1010900041E050E0BE016F5F7F4F09950F90DF91F7
:1010A000CF91089583E08093E9008091F200882336
:1010B00019F08AE38093E80008950E94170890E0F1
:1010C0000895CF93DF931F92CDB7DEB7FC018485DF
:1010D000958597FD08C02FEF3FEF358724870F9048
:1010E000DF91CF910895CE0101960E94ED070197FF
:1010F00019F4898190E0F3CF8FEF9FEFF0CF0F933A
:101100001F93CF93DF931F92CDB7DEB78C01FC0105
:101110008485958597FF0BC0CE0101960E94ED074F
:10112000019771F4898190E0F80195878487F8012F
:10113000848595850F90DF91CF911F910F91089530
:101140008FEF9FEFF1CFFC018485958597FD0BC054
:101150009FB7F89482E08093E9008091F2009FBFEE
:1011600090E0019608959FB7F89482E08093E9009B
:101170008091F2009FBF90E00895409194015091BA
:101180009501209192013091930142175307B4F4D5
:101190009091E8009570E1F39091E80092FD19C0FC
:1011A0008093F100809194019091950101968F7345
:1011B0009927892B19F48EEF8093E8008091940190
:1011C000909195010196909395018093940181E00F
:1011D000089580E00895DF92EF92FF920F931F939E
:1011E000CF93DF93D82E8A01EB017B01E40EF51E2D
:1011F000CE15DF0559F0D7FE12C0FE0184910E9482
:10120000BD0821968111F4CF0FEF1FEFC801DF91C8
:10121000CF911F910F91FF90EF90DF9008958881FB
:10122000EECF0F931F93CF93DF931F92CDB7DEB70F
:1012300082E0898342E450E065EB7BE080E80E9435
:10124000EB080E942808DC0112960D911C910115F3
:10125000110589F0D801ED91FC910280F381E02D18
:10126000BE016F5F7F4FC801099597FD04C0F8016B
:1012700000851185ECCF89810F90DF91CF911F916F
:101280000F910895615030F02091F100FC0120830E
:101290000196F8CF289884E68093A6010895AF922E
:1012A000BF92CF92DF92EF92FF920F931F93CF9353
:1012B000DF936C017B018B01040F151FEB015E01B5
:1012C000AE18BF08C017D10759F06991D601ED914A
:1012D000FC910190F081E02DC6010995892B79F7E9
:1012E000C501DF91CF911F910F91FF90EF90DF909B
:1012F000CF90BF90AF9008953FB7F8948091670169
:1013000090916801A0916901B0916A0126B5A89BEE
:1013100005C02F3F19F00196A11DB11D3FBFBA2F87
:10132000A92F982F8827BC01CD01620F711D811D47
:10133000911D42E0660F771F881F991F4A95D1F7CC
:1013400008958F929F92AF92BF92CF92DF92EF92C9
:10135000FF926B017C010E947C094B015C01C1146E
:10136000D104E104F104B9F00E947C0968197909FB
:101370008A099B09683E73408105910580F321E04D
:10138000C21AD108E108F10888EE880E83E0981EA1
:10139000A11CB11CE4CFFF90EF90DF90CF90BF90E5
:1013A000AF909F908F9008958F929F92AF92BF922F
:1013B000CF92DF92EF92FF920F931F93CF93DF9321
:1013C0006C017B018A0180910D01882309F45CC0C6
:1013D0008091A701882309F457C08091990180FF6B
:1013E00005C08091E00082608093E000E801B12CAC
:1013F0008AEFA82E93E0892E2AE3922E209711F4EB
:10140000BB20D9F10E94170881110AC0AA94AA2012
:10141000D9F161E070E080E090E00E94A109EECF98
:101420008C171D0611F00CF08C2F9FB7F89480924A
:10143000E9002091E80025FD02C09FBFDFCF282FE3
:1014400030E0C21BD30BF701815020F04191409353
:10145000F100FACFE20EF31EBB2021F09092E800DB
:10146000B12CEBCF8091E80085FDE7CF9092E800AA
:10147000BB24B394209709F3F3CF5D9884E680935F
:101480009801101611063CF081E090E0F60193837C
:10149000828310E000E0C801DF91CF911F910F918E
:1014A000FF90EF90DF90CF90BF90AF909F908F9084
:1014B00008952FB7F8946091630170916401809151
:1014C0006501909166012FBF08955F926F927F92A0
:1014D0008F929F92AF92BF92CF92DF92EF92FF9244
:1014E0000F931F93CF93DF93DC01FA015490319651
:1014F000E4914E5F5F4FC52DD0E0211102C0EE2078
:1015000039F1AA24A394B12C9E2F977011F4B12C19
:10151000A12C8E2F8695869586958A0D9B2D911DE3
:101520008C9F50018D9FB00C9C9FB00C1124011515
:10153000110539F0EA9CC001EB9C900D1124080FB5
:10154000191F2A9DC0012B9D900D1124480F591F72
:101550007E01EA0EFB1EE114F10409F4BEC0CB01CA
:101560008E0F911D892B09F4B8C04115510509F45E
:10157000B4C0362F3770F3E075956795FA95E1F7AB
:10158000962FF0E8EF16F1041CF080E8582E5A1A56
:1015900021E08E2F877009F420E0E695E695E69528
:1015A0002E0FFB01E20FF11D399714F028E0261BE6
:1015B000FB01F695FE2FEE27F795E795AE0FBF1FBF
:1015C000A32E032E000CBB0882E0C81248C088245A
:1015D0008A94912C032E02C0880C991C0A94E2F77D
:1015E00080949094792C892F861B821708F075C0FF
:1015F0008D0108551E4FF12CE12CE51418F5FA0168
:10160000EE0DFF1DC490D12C0A2C02C0CC0CDD1CA9
:101610000A94E2F797FD05C0F801808188218C29A2
:101620008083332349F097303CF4F801E058FF4FB2
:10163000808187218D298083FFEFEF1AFF0A0F5FDA
:101640001F4FDBCF4C0F5D1FA058BF4F9F5FCBCF0D
:101650004C0F5D1F0C0F1D1FA058BF4F9F5F892FA0
:10166000861B821708F039C0FD01E855FE4F7F0147
:10167000D12CC12CC51460F7F801EC0DFD1D849030
:10168000912C0A2C02C0880C991C0A94E2F78094D1
:101690009094FA01EC0DFD1D6490712C0A2C02C08F
:1016A000660C771C0A94E2F797FD05C0F70180816C
:1016B000882186298083332349F097303CF4F70151
:1016C000E058FF4F8081892187298083FFEFCF1A5F
:1016D000DF0A8FEFE81AF80ACDCFDF91CF911F9183
:1016E0000F91FF90EF90DF90CF90BF90AF909F90C1
:1016F0008F907F906F905F900895CF92EF920F93AD
:101700001F93F901202FCC24C3948F010E94650AF6
:101710001F910F91EF90CF9008952D9A0895BC01DD
:1017200090E080E00C94A1098FB18095807F669B4A
:1017300088601C9B8460089580E0E8EAF1E08111F4
:101740008FEF002481938193819381930394D1F748
:1017500010926C0110926B0110926E0110926D014B
:101760000895CF93C82F0E94940B982F9C2381E05B
:101770009C1380E0CF91089580E00C94DE071F93C6
:10178000CF93DF93DC0130E020E050E040E011E057
:10179000C1E0D0E02617370791F114968C91149789
:1017A000811115C014961C93149712968D919C91DB
:1017B0001397ED91FC911197E80FF91FE49115969D
:1017C000EC931597019613969C938E93129714960B
:1017D0009C91149715968C911597892349F0FE01D9
:1017E000022E02C0EE0FFF1F0A94E2F74E2B5F2B72
:1017F000990F14969C9314972F5F3F4FCBCFCA013C
:10180000DF91CF911F91089580389105B8F460342D
:101810007105A0F420E191E061FD94E060FD990F75
:1018200062FD9295687F269FD0011124A80FA855CC
:10183000BE4F8C9140FF03C0892B8C9308959095E7
:101840008923FBCF4F925F926F927F928F929F92EC
:10185000AF92BF92CF92DF92EF92FF920F931F93BE
:10186000CF93DF93EC014B01881A990A97FE03C0CE
:101870009194819491088EE288169104D4F16C17AA
:101880007D07F4F52E01EB0162E170E000E410E069
:1018900032016C1A7D0A6B01C01AD10AD7FE03C04F
:1018A000D194C194D108730177FE03C08FEFE81A79
:1018B000F80AF594E7948FEF061717070CF481E008
:1018C000A82E880FBB084C165D061CF140E08EE286
:1018D00088169104DCF4BE01C8010E94040CEC18C7
:1018E000FD08F7FE04C00A0D1B1DE60CF71C21962F
:1018F000EACF8E0190E4492E512CC2E1D0E0C8CF4E
:101900002B0160E470E002E110E0C2CFB801CE012B
:10191000E4CFDF91CF911F910F91FF90EF90DF9077
:10192000CF90BF90AF909F908F907F906F905F907F
:101930004F9008956F927F928F929F92AF92BF9235
:10194000CF92DF92EF92FF920F931F93CF93DF938B
:101950006D3089F0C0906B01D0906C016A30E1F479
:1019600010926E0110926D0188E0C80ED11CD092C9
:101970006C01C0926B0181E090E0DF91CF911F91EB
:101980000F91FF90EF90DF90CF90BF90AF909F901E
:101990008F907F906F90089560900001E0906D01AE
:1019A000F0906E01E5E06E9FE0011124C055DD4F1F
:1019B000570100E010E0053029F0CE010196FE014C
:1019C0001491EC01460188E0782E412F417010FD02
:1019D0001BC0662021F0B401C5010E94040C1695BD
:1019E0007A94FFEF8F1A9F0A7110EFCF0F5F8FEF7E
:1019F000A81AB80A0630F1F6E6E0EE0EF11CF092F5
:101A00006E01E0926D01B7CF462DE5CF8F929F9288
:101A1000AF92BF92CF92DF92EF92FF920F93CF934C
:101A2000DF935B01EC014C01840E911C6B01C20E33
:101A3000D11CC815D905D4F47501B7FE02C0F12C2C
:101A4000E12CC60121E4C216D10414F080E490E038
:101A5000E816F9064CF4402FB701CE010E94040CA1
:101A60008FEFE81AF80AEDCF2196E3CFDF91CF91FF
:101A70000F91FF90EF90DF90CF90BF90AF909F902D
:101A80008F900895F999FECF92BD81BDF89A80B5E7
:101A90000895F999FECF92BD81BDF89A20B5261719
:101AA00039F0F999FECF92BD81BD60BDFA9AF99ADD
:101AB0000895CF92DF92EF92FF920F931F93CF93EF
:101AC000DF93209188013091890180E490E06C01DE
:101AD000C21AD30ACCE6D1E0C21BD30B80E4E82EB5
:101AE000F12C86012CE430E0A60162E170E08CE389
:101AF00090E00E947906B6018CE390E00E94220CEF
:101B00008E012CE430E0AE0162E170E084E490E00C
:101B10000E947906BE0184E490E0DF91CF911F918D
:101B20000F91FF90EF90DF90CF900C94220CAF922A
:101B3000BF92CF92EF920F931F93CF93B12CA12C12
:101B4000C0E082E0C82EE12C10E000E02C2F4EEA2D
:101B500051E070E060E0C5010E94650ACF5F80E15E
:101B6000A80EB11CC83069F7CF911F910F91EF906B
:101B7000CF90BF90AF9008952F923F924F925F9277
:101B80006F927F928F929F92AF92BF92CF92DF928D
:101B9000EF92FF920F931F93CF93DF93CDB7DEB7F2
:101BA00028970FB6F894DEBF0FBECDBF1C017A8315
:101BB0006983BA01550F880B990B0E94BF1D20E065
:101BC00030E040EC5FE30E944B1E0E94871D6B01DA
:101BD00078876F83CB016BEF7FEF0E94D81E8981DE
:101BE0009A81860F971F9E838D83C60165E070E002
:101BF0000E94D81E262FA601D7FE02C0495F5F4F64
:101C000083E0559547958A95E1F700E06D817E81E7
:101C1000C1010E94060DB101032C000C880B990B29
:101C20000E94BF1D4B015C01B6010D2C000C880BFE
:101C3000990B0E94BF1D2B013C01E980FA80EC1832
:101C4000FD088F8198856FE070E00E94D81E8B019F
:101C5000020D131D20E030E040E05FE3C301B2015C
:101C60000E944B1EA50194010E94A91C0E94871D81
:101C700069837A838B839C8323E333E343E350E4D8
:101C8000C301B2010E94151D9B01AC01C501B40145
:101C90000E94A81C0E94871DCB012D813E81498195
:101CA0005A81B9010E94790628960FB6F894DEBFD2
:101CB0000FBECDBFDF91CF911F910F91FF90EF909D
:101CC000DF90CF90BF90AF909F908F907F906F905C
:101CD0005F904F903F902F900895EF920F93CF9386
:101CE000DF93C0918801D091890180917301909117
:101CF00074018C179D0704F593E0E92E03E02CEAAC
:101D000030E04CE251E060E370E082E390E00E945A
:101D10007D0B2CEA30E04CE251E060E370E08FE3B1
:101D200090E00E947D0BD0937401C0937301DF910A
:101D3000CF910F91EF900895C817D90724F482E04E
:101D4000E82E02E0DCCFC817D90769F7E12C00E0E4
:101D50002CEA30E04CE251E060E370E083E390E095
:101D60000E947D0BEE24E39401E02CEA30E04CE28B
:101D700051E060E370E08EE390E0D3CF10927C01FD
:101D800010927B0182E190E0909384018093830123
:101D900088E290E09093800180937F0182E390E05D
:101DA00090937E0180937D0186E990E090937A0183
:101DB000809379012FE530E030937801209377010B
:101DC00026E331E0309376012093750190938901E9
:101DD00080938801909374018093730181E08093D4
:101DE00091011092900110928F0188E780938701F2
:101DF0000895089590E080E008958F929F92AF92A9
:101E0000BF920F931F93CF93DF93CDB7DEB7A19708
:101E10000FB6F894DEBF0FBECDBF19A2423008F452
:101E20004AE08E010F5D1F4F842E912CB12CA12C06
:101E3000A50194010E94771CE62FB901CA01EA307E
:101E400044F5E05DD801EE938D01232B242B252B47
:101E500079F790E080E0109769F0FD010190002093
:101E6000E9F73197AF014A1B5B0BBD0188EF95E0A5
:101E70000E944F09A1960FB6F894DEBF0FBECDBFEA
:101E8000DF91CF911F910F91BF90AF909F908F9056
:101E90000895E95CD7CFFC0101900020E9F7319764
:101EA000AF01481B590BBC0188EF95E00C944F091A
:101EB000CF92DF92EF92FF92CF93DF936C01990F55
:101EC000EE08FF08F7FE19C06DE288EF95E00E946A
:101ED0009A0CEC0166277727CB016C197D098E09D6
:101EE0009F094AE00E94FD0E8C0F9D1FDF91CF914C
:101EF000FF90EF90DF90CF9008954AE0C701B601C0
:101F0000DF91CF91FF90EF90DF90CF900C94FD0E7A
:101F10000F93CF93DF930E949C0B40E054E06FEF50
:101F200070E088EA91E00E94F21E0E94970D86E917
:101F300090E090938901809388010E94590D10923E
:101F4000000101E024E24EE665E170E08AE090E005
:101F50000E94060D4CE666E170E08BE090E00E9486
:101F600040064CE667E370E08BE090E00E9440069C
:101F7000C6E1D0E040E0BE018BE090E00E94040C9E
:101F80002196C833D105B1F7C6E1D0E040E0BE01EB
:101F900086E790E00E94040C2196C833D105B1F782
:101FA00020918F013091900189E137FD87E1275F12
:101FB0003F4F2331310508F48D5F90E090936E011F
:101FC00080936D0189E190E090936C0180936B01A7
:101FD00087E391E00E944B0F80918F0190919001D7
:101FE0000E94580F209185013091860186E137FDCE
:101FF00084E1275F3F4F2331310508F48D5F90E086
:1020000090936E0180936D0183E290E090936C0158
:1020100080936B0183E491E00E944B0F80918501D6
:10202000909186010E94580F8EE090E090936E018F
:1020300080936D01CDE2D0E0D0936C01C0936B0131
:1020400080E591E00E944B0F89E390E090936E0150
:1020500080936D01D0936C01C0936B0187E591E093
:102060000E944B0FDF91CF910F910C94BC0B0C94FD
:102070002F1C1F920F920FB60F9211248F939F93D4
:102080008091E1009091E100937F9093E10083FFC4
:102090000FC01092E90091E09093EB001092EC00D9
:1020A00092E39093ED001092A70198E09093F000D6
:1020B00082FF22C093E09093E9009091F20099236F
:1020C00019F09AE39093E80090919801992341F0D8
:1020D00090919801915090939801911101C05D9A4F
:1020E0009091A601992341F09091A601915090936F
:1020F000A601911101C0289A84FF18C08091E200C6
:102100008E7E81608093E2008091E1008F7E8093DB
:10211000E100809199018E7E8061809399019F9169
:102120008F910F900FBE0F901F90189580FFF7CFE3
:102130008091E2008E7E80618093E2008091E100D8
:102140008E7E8093E100809199018E7E8160E5CF43
:102150001F920F920FB60F921124CF92DF92EF923F
:10216000FF920F931F932F933F934F935F936F9320
:102170007F938F939F93AF93BF93EF93FF93CF93EF
:10218000DF93CDB7DEB76C97DEBFCDBF1092E9000D
:102190008091E80083FF25C068E0CE0145960E944B
:1021A000420982EF8093E8008D8987FF39C09091C2
:1021B000E80090FFFCCF982F907609F034C19E89FB
:1021C0004F89588D2F89F88C911131C0803861F575
:1021D000809197018093F1001092F1008EEF80932F
:1021E000E8006C960FB6F894DEBF0FBECDBFDF914E
:1021F000CF91FF91EF91BF91AF919F918F917F917F
:102200006F915F914F913F912F911F910F91FF908F
:10221000EF90DF90CF900F900FBE0F901F9018950A
:102220009EEF9093E800C7CF1092F100D5CF913088
:1022300059F48111D3CF4130510581F68091970136
:102240008D7F80939701CACF933049F48111C6CF17
:102250004130510519F6809197018260F2CF953097
:1022600041F48091E80080FFFCCF20682093E300D8
:10227000B5CF963009F0A9C00B8D1C8D22E01092CD
:10228000E9001092950110929401F2122EC0109262
:102290009301109292010E9411091F8299E0998383
:1022A000FA8291E09E8390EA98879AEF998720912D
:1022B000940130919501275F3F4F3C832B838D83A1
:1022C0001092E900109295011092940110939301DD
:1022D0000093920149E050E0BE016F5F7F4F80E0C4
:1022E0000E94EB080E94110979CF1093930100938B
:1022F00092010E942808DC0112960D911C91011593
:10230000110509F451C1D801ED91FC910480F581CA
:10231000E02DBE016B5E7F4FC8010995009709F063
:102320003EC1F80100851185EACFF3E0FF120EC02F
:102330008F89882309F440C0823061F440E860E16D
:1023400089E19CE00E942413811148CF81E28093AF
:10235000EB0047CF813029F440E86BE08DE09CE052
:10236000F1CF833099F70E942808DC011296ED9096
:10237000FC908E010F5F1F4F6801E114F10479F0AA
:10238000D701ED91FC910680F781E02DB801C701DE
:102390000995080F111DF701E084F184EECFD801F3
:1023A0001C92F60101900020E9F73197BF016C19EA
:1023B0007D0940E0C601C6CF67EF7BE0FB01449199
:1023C00050E080E80E94EB0809CF973009F4BECFB7
:1023D000983021F481E08093F10000CF993009F02A
:1023E000FDCE837009F0B2CFE3E1F1E081E031E0AE
:1023F00096E32191222371F08093E9003093EB0062
:10240000DF0111972C912093EC009093ED008F5FEA
:10241000873079F78EE78093EA001092EA008F897F
:102420008093A701DBCE8B8D9C8D1092E9001092DA
:102430009501109294019093930180939201898D5C
:10244000811192C08E899D89913A49F4813209F0B7
:102450007DCF47E050E066E071E080E0B3CF91329D
:1024600009F074CF833269F48F89988DB0E0A0E0D1
:102470008093020190930301A0930401B09305019E
:10248000ADCE803269F48091E80082FFFCCF67E036
:1024900086E091E00E9442098BEF8093E8009ECE97
:1024A000823209F09BCE8F8980930D01EEEFFFE71A
:1024B000859194918B3F9C4D51F1E0E0F8E0809143
:1024C000060190910701A0910801B0910901803B9C
:1024D0009440A105B105F1F480910D0180FD1AC071
:1024E000EE3F8AE0F80789F587E797E791838083D5
:1024F000809160008093960188E19BE00FB6F8948C
:10250000A895809360000FBE9093600067CEEEEFB9
:10251000FAE0D5CF808191818737974709F05ECE69
:10252000A8958091600088618093600080919601F9
:1025300080936000EE3F2AE0F20789F08091FE0A66
:102540009091FF0A9183808349CE80819181873762
:10255000980751F29093FF0A8093FE0AC5CF10921C
:10256000FF0A1092FE0A3ACE0E942808DC01129659
:102570000D911C910115110509F4E8CED801ED91DA
:10258000FC910190F081E02DBE016B5E7F4FC80190
:102590000995811123CEF80100851185EBCF18161E
:1025A00019060CF41BCED2CEF1E0FF12BECE6BEFBB
:1025B0007BE004CF1F920F920FB60F9211242F933E
:1025C0003F938F939F93AF93BF93809163019091BB
:1025D0006401A0916501B09166013091620123E030
:1025E000230F2D3758F50196A11DB11D20936201CF
:1025F0008093630190936401A0936501B093660199
:102600008091670190916801A0916901B0916A0180
:102610000196A11DB11D8093670190936801A0935D
:102620006901B0936A01BF91AF919F918F913F91E2
:102630002F910F900FBE0F901F90189526E8230F33
:102640000296A11DB11DD2CFEF92FF920F931F935F
:10265000CF93DF93F82E192FE62E042F81E0860FFB
:10266000880F0E94BD0883E00E94BD08CF2DD12FA6
:10267000EC0EFD2EF11CCE15DF05B9F007FF13C0DF
:10268000FE0184910E94BD08182F80E00E94BD08C1
:10269000812321968111EFCFDF91CF911F910F916F
:1026A000FF90EF9008958881EDCF81E0F5CFE8EAC3
:1026B000F5E01382128288EE93E0A0E0B0E084831C
:1026C0009583A683B7838DE191E0918380838FEF1B
:1026D0009FEF95878487E8EFF5E0138212828FE2FF
:1026E00091E0918380830895CF93DF93CDB7DEB7D8
:1026F00061970FB6F894DEBF0FBECDBF789484B556
:10270000826084BD84B5816084BD85B5826085BDED
:1027100085B5816085BD80916E00816080936E007B
:10272000109281008091810082608093810080916D
:10273000810081608093810080918000816080931E
:10274000800080919100826080939100809191003F
:1027500081608093910080919000816080939000CF
:102760008091C10084608093C1008091C10082602B
:102770008093C1008091C10081608093C1008091ED
:10278000C30081608093C3008091C0008260809309
:10279000C0008091C20081608093C20080917A0065
:1027A000846080937A0080917A00826080937A00BE
:1027B00080917A00816080937A0080917A008068AD
:1027C00080937A001092A7011092970110929901BC
:1027D0008091D70081608093D70080EA8093D800F1
:1027E00089B5806189BD89B5826089BD09B400FE63
:1027F000FDCF61E070E080E090E00E94A10980914F
:10280000D8008F7C80618093D8008091E000807F29
:102810008093E0008091E1008E7E8093E1008DE066
:102820008093E200559A209A81EC80937C0085B1D8
:10283000806F85B984B1877E84B984B1876E84B98D
:102840005E9A5F988AB1806D8AB9769A6E9881B3E4
:10285000806F81BB899880B38D7080BB80E58CBD13
:1028600081E08DBD85E090E00E948F0B5F9A85E04E
:1028700090E00E948F0B5E985C98E0E6F8E08DE6B1
:1028800098E024912EBD00000DB407FEFDCF3196D7
:102890008E179F07B1F75C9A81E88093640080915E
:1028A00065008160809365000E94BC0B80E80E94F7
:1028B000B10B8823A9F05C9885EA8EBD00000DB4A9
:1028C00007FEFDCF5C9A2E982F982D98809164007A
:1028D00080628093640081E083BF889513BEFCCF43
:1028E00084E00E94B10B882309F448C02D9884E845
:1028F0000E94B10B8823E1F00E948D0B88EC90E0E0
:102900000E948F0B2F9882E090E00E942F1C8F3F37
:1029100029F06FEF82E090E00E94371C84EF91E095
:102920000E948F0B2F9A84E80E94B10B8111FBCF7C
:1029300084E10E94B10B8823E1F00E948D0B88ECAA
:1029400090E00E948F0B2E9882E090E00E942F1C56
:10295000882329F060E082E090E00E94371C84EF39
:1029600091E00E948F0B2E9A84E10E94B10B81119D
:10297000FBCF88EC90E00E948F0BB2CF0E948D0BB2
:1029800082E090E00E943710882309F47BC03E9AD1
:102990003F9A81E090E00E943710082F0470702E5B
:1029A00081FF11C001112E9801EF1FEF88E0A82EC2
:1029B000B12C80E40E94B10B882309F466C02E9AE2
:1029C0002F9A0E948D0B82E390E00E948F0B0E9451
:1029D000940BF82E8111F7CF89E1809301010E94B9
:1029E0009C0B8DE698E09A8389831C821B821D8252
:1029F0001E8268E070E0CE0101960E94BF0B019636
:102A00005C0168E070E0CE0101960E94BF0B8C0172
:102A10000F5F1F4F61E070E0CE0101960E94BF0B77
:102A2000E82E1A141B040CF029C1101611060CF024
:102A300025C16801F3E0D594C794FA95E1F70770D2
:102A40001127012B19F00FEFC01AD00A5524539407
:102A500010E000E0912C812C442443948C149D04BC
:102A60000CF00CC166246394712C61E070E0CE011F
:102A700001960E94BF0B892B09F0C5C022E0620EAF
:102A8000711CF3CF3E983F9884CF772029F0043013
:102A9000110511F42E9A2F9881E00E94DE0798010B
:102AA00017FF04C022273327201B310B2770332741
:102AB000C80117FD0796B3E095958795BA95E1F79C
:102AC00017FF05C00197A501421B530B9A01BC01DA
:102AD0007695762F662777956795685D7D4FB0E090
:102AE000A0E02501421A530A8E3F5FEF950709F4D3
:102AF0003AC07B01E0E8EE1AF10850E040E0FD0149
:102B0000E055F84F4F018F3F980779F0F401E40F3B
:102B1000F51FE491F0E06F01022E01C0CC0C0A9485
:102B2000EAF7F701D488CD28C48A2115310599F038
:102B3000F401E40FF51FE4916B01C40ED51EF0E023
:102B40001F01042C02C0359427940A94E2F7F60181
:102B500064882628248A4F5F5F4FFFEFEF1AFF0A31
:102B60004835510581F60196A85ABF4F60587F4FEE
:102B7000A03BB10509F0B8CF0E94BC0B8FE090E0FC
:102B80000E948F0B0F5F1F4F0931110509F011CF04
:102B9000772011F02F9A2D9880E991E00E948F0BF9
:102BA0000E948D0B81E090E00E94371080FF0BCFD8
:102BB0008AE090E00E9437109FEF980F9E3F08F048
:102BC00002CF22E330E030936E0120936D0128E3C1
:102BD00030E030936C0120936B010BE010E0682F24
:102BE00088EF95E00E949A0CC8010E9437100F5F91
:102BF0001F4F0131110599F70E94BC0B88EE93E03D
:102C00000E948F0BE0CEB301CE0101960E94BF0B54
:102C1000019630E020E02817390770F5E110F5281B
:102C2000652D660F31F5A4014F5F5F4F49305105A7
:102C300080F4003811056CF4F401F695FE2FEE27B0
:102C4000F795E795E00FF11FE855FE4F7081F72AE1
:102C5000F0820F5F1F4F552453940A151B052CF06B
:102C60004A015524539410E000E02F5F3F4FF62EA9
:102C7000D2CF562E6F2DF9CFE424F0CE0E94BC0B9C
:102C800088E00E94B10B811105C084E00E94B10B65
:102C90008823B1F381E092E00E94420D863409F06E
:102CA0005CC082E092E00E94420D863509F055C07A
:102CB00083E092E00E94420D182F84E092E00E948F
:102CC000420D212F30E0322F2227820F932F911DAA
:102CD0009093860180938501809164008E7F80931C
:102CE000640080917A00806480937A0080917A00F9
:102CF00086FDFCCF00917800109179000E947C093C
:102D0000AB01BC01C801B0E0A0E0DC019927882735
:102D10008C019D01040F151F261F371FC901B80123
:102D20002091640021602093640061157105810584
:102D3000910511F00E94261C0E94BE0E0E94590AA5
:102D4000809171018823F1F01092710180E090E090
:102D5000892BA1F30E940000F1CF66E481E092E0AC
:102D60000E94490D66E582E092E00E94490D60E014
:102D700083E092E00E94490D60E084E092E00E94CE
:102D8000490DAACF80917201162F181B812F9091A7
:102D90000101191740F48F5F8917C0F681E083BFE6
:102DA000889513BED3CF81E0809371016093720147
:102DB00080916F01909170010196909370018093C2
:102DC0006F010E94940B80938E018091910181305C
:102DD00009F04CC00E949C0B40E054E06FEF70E0A3
:102DE00088EA91E00E94F21E0E94970D0E94590D00
:102DF0000E946D0E0E94BC0BF12C12E0C12EE12C42
:102E000010E000E02F2D43E15BE06EE170E089E32C
:102E100090E00E94650A0E94BC0B0E94590A6093D0
:102E20008A0170938B0180938C0190938D014B01EB
:102E30005C0128EE820E23E0921EA11CB11C0E94B0
:102E4000590A681579058A059B05C8F3F39435E09E
:102E5000F312D3CF109291010E94590A60938A0114
:102E600070938B0180938C0190938D010E949C0B39
:102E700040E054E06FEF70E088EA91E00E94F21EBB
:102E80000E94970D0E94590D80E20E94B10B882389
:102E900069F0809188019091890104978E309105A5
:102EA0000CF49FC0909389018093880180E40E9474
:102EB000B10B882371F0809188019091890104966B
:102EC0008F3141E094070CF08FC09093890180937B
:102ED0008801C0908A01D0908B01E0908C01F09025
:102EE0008D0158EEC50E53E0D51EE11CF11C0E9469
:102EF000590AC616D706E806F90678F41091870134
:102F00000E94590A60938A0170938B0180938C010F
:102F100090938D0111501093870110918701812F9B
:102F20006CE30E94B81EF92EE12C082F29EA3AE042
:102F300041EB5AE061E170E082E090E00E947D0B9D
:102F40000AE029EA3AE041EB5AE061E170E086E00C
:102F500090E00E947D0B8F2D6AE00E94B81EF92E32
:102F6000082F29EA3AE041EB5AE061E170E088E09D
:102F700090E00E947D0B0F2D29EA3AE041EB5AE0E8
:102F800061E170E08CE090E00E947D0B111131C096
:102F90000E94880F84E00E94B10B811128C088E054
:102FA0000E94B10B8823B1F388E00E94B10B81111C
:102FB000FBCF80918F019091900190938601809337
:102FC00085010E94880F10918F016091900183E02C
:102FD00092E00E94490D612F84E092E00E94490D29
:102FE000D9CF8EE090E05ECF8EE191E06ECF0E946F
:102FF000BE0EC0908301D09084018FE3C816D10427
:1030000059F580918F01909190012091810130912B
:1030100082012730310509F0D1C2019690939001C9
:1030200080938F0180918F0190919001843691055A
:1030300034F083E690E09093900180938F0180912B
:103040008F01909190018D399F4F34F40DE91FEF5E
:103050001093900100938F0180918F0190919001C6
:1030600097FFAEC29195819591096AE070E00E9448
:10307000C41EF62E182FE12C0BE029EA3AE041EBB2
:103080005AE061E170E083E790E00E947D0BE12C63
:103090000F2D29EA3AE041EB5AE061E170E087E761
:1030A00090E00E947D0B012F29EA3AE041EB5AE0C3
:1030B00061E170E08BE790E00E947D0B1FEFC11A89
:1030C000D10AD0928401C092830180917F019091B6
:1030D000800101969093800180937F0180917D0112
:1030E00090917E01019690937E0180937D0120E472
:1030F000C216D104D4F010927C0110927B0142E1FF
:1031000050E050938401409383010E94D71B29EA29
:1031100030E040E050E00E94451C6E5C7F4F8F4FD6
:103120009F4F70937A016093790180917F01909114
:1031300080018034910504F10E94D71B2EE130E01C
:1031400040E050E00E94451C82E190E0861B970B16
:103150009093800180937F010E94D71B29E130E08A
:1031600040E050E00E94451C6A5B7F4F8F4F9F4FAD
:10317000709378016093770180917D0190917E0139
:103180008034910504F10E94D71B2EE130E040E02D
:1031900050E00E94451C82E190E0861B970B9093C3
:1031A0007E0180937D010E94D71B2DE230E040E03C
:1031B00050E00E94451C695D7E4F8F4F9F4F70937A
:1031C000760160937501A0908801B090890100910B
:1031D000790110917A010A191B09C80165E270E0B2
:1031E0000E94D81E605C7F4F072E000C880B990B45
:1031F0000E94BF1D6B017C012090830130908401EF
:1032000060E470E0601B710B072E000C880B990BBB
:103210000E94BF1D9B01AC01C701B6010E94A81C02
:1032200020E030E048E352E40E94151D2B013C01F0
:10323000B10162517109072E000C880B990B0E9495
:10324000BF1D9B01AC01C301B2010E944B1EA7012F
:1032500096010E94A91C6B017C0152E125163104E4
:1032600009F0B5C1109282011092810180917B0119
:1032700090917C019F878E87B10160517109072E63
:10328000000C880B990B0E94BF1D20E030E040EC41
:103290005FE30E94151D0E94871D4B0178876F8395
:1032A000C701B6010E94871D2B01C40197FC0F9630
:1032B000B4E095958795BA95E1F7F1E0F80FFD87B1
:1032C0008F8198856DEF7FEF0E94D81E798B688B78
:1032D000CB01840D951D8C01015011091C870B87B2
:1032E0002E853F852130310509F0C6C139E323160B
:1032F00031040CF4C1C1A6E2EA2EF12CE818F90859
:103300006101CE18DF0800E02E2D4F2FB601C2015B
:103310000E94060DC701F7FC0796F3E09595879587
:10332000FA95E1F78C0D9D1D9701F7FE02C02D5F08
:103330003F4F35952795359527952C0D3D1D7C01E3
:103340000B851C85A201B601C2010E947906B40159
:10335000092C000C880B990B0E94BF1D2DEC3CEC36
:103360004CEC5FE30E944B1E6B017C01B201550CDB
:10337000880B990B0E94BF1D9B01AC01C701B601D0
:103380000E94A91C0E94871D2B0188899989840DA0
:10339000951DFC013197FC87EB870E851F85023058
:1033A000110509F092C18091830190918401C99720
:1033B0000CF48BC156E2A52EB12CA818B9082A1816
:1033C0003B0800E02A2D4D85B101C2010E94060D87
:1033D0007501B7FE03C017E0E10EF11C43E0F59460
:1033E000E7944A95E1F7E20CF31CB7FE03C023E033
:1033F000A20EB11CB594A794B594A7949501220D83
:10340000331D0B851C85A201B101C2010E94790602
:1034100000917F0110918001023111050CF45DC013
:10342000E0907701F0907801B7010F2C000C880B29
:10343000990B0E94BF1D20E030E040E250E40E9462
:10344000151D4B015C01B80160517109072E000C7C
:10345000880B990B0E94BF1D20E030E040EC5FE339
:103460000E94151D0E94871D2B018091880190915B
:103470008901E81AF90A66E870E06E197F09072EDB
:10348000000C880B990B0E94BF1D9B01AC01C5016C
:10349000B4010E94A81C20E030E048E352E40E94FE
:1034A000151D6B017C01B80162517109072E000CDA
:1034B000880B990B0E94BF1D9B01AC01C701B6018F
:1034C0000E944B1EA50194010E94A91C0E94871D09
:1034D000CB01A201B8010E94BC0DE0907D01F090EB
:1034E0007E0182E1E816F1040CF463C000917501DD
:1034F00010917601B80117FF02C06D5F7F4F75957F
:10350000679575956795072E000C880B990B0E949F
:10351000BF1D4B015C01B70160517109072E000C02
:10352000880B990B0E94BF1D20E030E040EC5FE368
:103530000E94151D0E94871D6F83788789879A874F
:103540008091880190918901081B190B60E470E05B
:10355000601B710B072E000C880B990B0E94BF1D7E
:103560009B01AC01C501B4010E94A81C20E030E021
:1035700048E352E40E94151D2B013C01B701625142
:103580007109072E000C880B990B0E94BF1D9B012F
:10359000AC01C301B2010E944B1EA50194010E941F
:1035A000A91C0E94871DCB014F815885B7010E943D
:1035B000BC0D0E946D0E0E94BC0BC8CB01972ECD96
:1035C0006AE070E00E94D81EF62E182F60CD89E3C5
:1035D000281631040CF44ACE809173019091740145
:1035E000A816B90611F59801275F3F4F2331310521
:1035F00030F4E1E0F0E0F0937C01E0937B0198018E
:10360000275C3F4F2331310508F18A159B0524F5CE
:10361000C8010A96499730F441E050E050937C018C
:1036200040937B01C801CB960FC0A816B9066CF772
:10363000C8010D96499730F421E030E030937C01C9
:1036400020937B01C801CE96499730F482E090E048
:1036500090937C0180937B010D5D1F4F0731110515
:1036600008F004CE8091810190918201019690939F
:10367000820180938101FACD6101C818D90800E068
:10368000282D4D85B601C2010E94060D74014F819F
:10369000588557FF03C057E0E50EF11C73E0F59421
:1036A000E7947A95E1F7EC0CFD1C94018F819885E5
:1036B00097FF02C02D5F3F4F35952795359527958C
:1036C0002C0D3D1D2F5F3F4F3BCE2818390800E0E1
:1036D000282D4D85B101C2010E94060D74014F8154
:1036E000588557FF03C057E0E50EF11C23E0F59421
:1036F000E7942A95E1F7E20CF31C940197FE02C0CF
:103700002D5F3F4F3595279535952795220D331D14
:103710002F5F3F4F76CE8F929F92AF92BF92CF9204
:10372000DF92EF92FF92CF93DF93EC016881798172
:103730008A819B81611571058105910521F464E2FF
:1037400079ED8BE597E02DE133EF41E050E00E9409
:10375000451C49015A019B01AC01A7EAB1E40E9452
:10376000641C6B017C01ACEEB4EFA50194010E94D6
:10377000721CC60ED71EE81EF91EF7FE06C081E0B9
:10378000C81AD108E10880E8F80AC882D982EA821A
:10379000FB82C701B6019F77DF91CF91FF90EF9039
:1037A000DF90CF90BF90AF909F908F9008958F92B1
:1037B0009F92AF92BF92CF92DF92EF92FF92609171
:1037C0000E0170910F01809110019091110161150E
:1037D00071058105910521F464E279ED8BE597E0AF
:1037E0002DE133EF41E050E00E94451C49015A01B0
:1037F0009B01AC01A7EAB1E40E94641C6B017C014F
:10380000ACEEB4EFA50194010E94721CC60ED71E47
:10381000E81EF91EF7FE06C081E0C81AD108E108CB
:1038200080E8F80AC0920E01D0920F01E0921001D8
:10383000F0921101C701B6019F77FF90EF90DF90E2
:10384000CF90BF90AF909F908F90089560930E019E
:1038500070930F0180931001909311010895F999CD
:10386000FECF92BD81BDF89A992780B50895262F85
:10387000F999FECF1FBA92BD81BD20BD0FB6F89455
:10388000FA9AF99A0FBE01960895052E97FB1EF439
:1038900000940E945C1C57FD07D00E94771C07FC17
:1038A00003D04EF40C945C1C5095409530952195B6
:1038B0003F4F4F4F5F4F089590958095709561955C
:1038C0007F4F8F4F9F4F08950E94991CA59F900D89
:1038D000B49F900DA49F800D911D11240895B7FFF2
:1038E0000C94641C0E94641C821B930B0895A1E23B
:1038F0001A2EAA1BBB1BFD010DC0AA1FBB1FEE1F6A
:10390000FF1FA217B307E407F50720F0A21BB30BB4
:10391000E40BF50B661F771F881F991F1A9469F730
:1039200060957095809590959B01AC01BD01CF018C
:103930000895A29FB001B39FC001A39F700D811D88
:103940001124911DB29F700D811D1124911D0895A8
:103950005058BB27AA270E94C01C0C94111E0E941D
:10396000031E38F00E940A1E20F039F49F3F19F41C
:1039700026F40C94001E0EF4E095E7FB0C94FA1D5F
:10398000E92F0E94221E58F3BA17620773078407B3
:10399000950720F079F4A6F50C94441E0EF4E095FA
:1039A0000B2EBA2FA02D0B01B90190010C01CA01F9
:1039B000A0011124FF27591B99F0593F50F4503EA4
:1039C00068F11A16F040A22F232F342F4427585F96
:1039D000F3CF469537952795A795F0405395C9F7AE
:1039E0007EF41F16BA0B620B730B840BBAF0915066
:1039F000A1F0FF0FBB1F661F771F881FC2F70EC005
:103A0000BA0F621F731F841F48F4879577956795D7
:103A1000B795F7959E3F08F0B0CF9395880F08F0C3
:103A20009927EE0F9795879508950E94291D0C946C
:103A3000111E0E940A1E58F00E94031E40F029F435
:103A40005F3F29F00C94FA1D51110C94451E0C9403
:103A5000001E0E94221E68F39923B1F3552391F3AF
:103A6000951B550BBB27AA2762177307840738F0ED
:103A70009F5F5F4F220F331F441FAA1FA9F335D04A
:103A80000E2E3AF0E0E832D091505040E695001CFE
:103A9000CAF72BD0FE2F29D0660F771F881FBB1FB8
:103AA000261737074807AB07B0E809F0BB0B802D96
:103AB000BF01FF2793585F4F3AF09E3F510578F0C2
:103AC0000C94FA1D0C94451E5F3FE4F3983ED4F32A
:103AD000869577956795B795F7959F5FC9F7880F96
:103AE000911D9695879597F90895E1E0660F771FE8
:103AF000881FBB1F621773078407BA0720F0621B79
:103B0000730B840BBA0BEE1F88F7E09508950E94A3
:103B10008E1D6894B1110C94451E08950E942A1EB2
:103B200088F09F5798F0B92F9927B751B0F0E1F07E
:103B3000660F771F881F991F1AF0BA95C9F714C02E
:103B4000B13091F00E94441EB1E008950C94441EDF
:103B5000672F782F8827B85F39F0B93FCCF3869567
:103B600077956795B395D9F73EF4909580957095C4
:103B700061957F4F8F4F9F4F0895E89409C097FB41
:103B80003EF490958095709561957F4F8F4F9F4F34
:103B90009923A9F0F92F96E9BB279395F695879578
:103BA00077956795B795F111F8CFFAF4BB0F11F43B
:103BB00060FF1BC06F5F7F4F8F4F9F4F16C08823E2
:103BC00011F096E911C0772321F09EE8872F762F18
:103BD00005C0662371F096E8862F70E060E02AF059
:103BE0009A95660F771F881FDAF7880F9695879545
:103BF00097F9089597F99F6780E870E060E008956D
:103C00009FEF80EC089500240A94161617061806F4
:103C10000906089500240A941216130614060506D0
:103C20000895092E0394000C11F4882352F0BB0F61
:103C300040F4BF2B11F460FF04C06F5F7F4F8F4FC4
:103C40009F4F089557FD9058440F551F59F05F3FFF
:103C500071F04795880F97FB991F61F09F3F79F0AE
:103C600087950895121613061406551FF2CF469530
:103C7000F1DF08C0161617061806991FF1CF8695B2
:103C80007105610508940895E894BB276627772796
:103C9000CB0197F908950E945E1E0C94111E0E949C
:103CA000031E38F00E940A1E20F0952311F00C9498
:103CB000FA1D0C94001E11240C94451E0E94221E15
:103CC00070F3959FC1F3950F50E0551F629FF0016F
:103CD000729FBB27F00DB11D639FAA27F00DB11D88
:103CE000AA1F649F6627B00DA11D661F829F222711
:103CF000B00DA11D621F739FB00DA11D621F839F98
:103D0000A00D611D221F749F3327A00D611D231F6D
:103D1000849F600D211D822F762F6A2F11249F57BB
:103D200050409AF0F1F088234AF0EE0FFF1FBB1FBE
:103D3000661F771F881F91505040A9F79E3F51057D
:103D400080F00C94FA1D0C94451E5F3FE4F3983EFE
:103D5000D4F3869577956795B795F795E7959F5F27
:103D6000C1F7FE2B880F911D9695879597F90895B9
:103D7000991B79E004C0991F961708F0961B881FBD
:103D80007A95C9F780950895AA1BBB1B51E107C01E
:103D9000AA1FBB1FA617B70710F0A61BB70B881FDB
:103DA000991F5A95A9F780959095BC01CD0108956A
:103DB00097FB072E16F4009407D077FD09D00E94D8
:103DC000C41E07FC05D03EF4909581959F4F089541
:103DD000709561957F4F0895EE0FFF1F0590F49148
:103DE000E02D0994DC0101C06D9341505040E0F793
:063DF0000895F894FFCFD6
:103DF6000110FFFFFFFF00E10000000000000100CE
:103E0600000000C18081000000000000003C08D4D2
:103E1600095D085208A30861087F08000000009A9F
:103E26000C4F09FA0EF90E596F75722073636F7293
:103E3600653A0053617665642073636F72653A0074
:103E4600413A5361766500423A4E65772067616D67
:023E5600650005
:00000001FF
